:20000000A1C1BBC1BAC1DCC1B8C1B7C1B6C1B5C1C6C3B3C1B2C1B1C1B0C1AFC1AEC10000DA
:2000200000000101010202030405050607090A0B0C0E0F1112141517191B1D1F21232528F0
:200040002A2C2F313436393B3E414346494C4F5255585A5D6164676A6D707376797C808316
:2000600086898C8F9295989B9EA2A5A7AAADB0B3B6B9BCBEC1C4C6C9CBCED0D3D5D7DADC1B
:20008000DEE0E2E4E6E8EAEBEDEEF0F1F3F4F5F6F8F9FAFAFBFCFDFDFEFEFEFFFFFF0004DA
:2000A000FFF112FCFA0FF706F00300FF00FD1000FCEE0DF9FB04030A020FF92107F612E522
:2000C00002FD10FBE1FBEF08EAFAF8F509F701F7F6FD061B06FFF3E906F410051809080E3F
:2000E000F705EC0AE7FBF404F5EF08F70BEE17F70E00090B0410EA0DF90CF604E6EE03F94E
:200100000EEF03FF12FB0B0E0007F108F9FBFBFEF9EEFDFC04FCFE0B0C040103F8F3FE02E5
:2001200007000B0601FDFF0901FFFAFFFD0BF4FEF6FC020404FD0CFA04E90408FC07FAFEBB
:20014000FFFCF5F6F606FBFB03FF0309FF0200000CFD04FDFEFA0C00020FFF06F706FCFF9C
:20016000FDF0FFFCFCFEF9F90804010802FB00F801050600F501F40008FAFDFDF9FF03FBB9
:2001800005FC0410F908040107FAF4F9070101FD00010201F7FB07FDFAFDF904FE08070055
:2001A0000B01FBFDF5F705FDFDFCFD05020AFAFD08F9F8FE03FF05020103020801FDFEF94C
:2001C000FD01FDFF0201FAFC00FB010101010202F90106FEFD0702FFF7FA03FE01FFFFF93C
:2001E0000109FFFD0306FB04FDFF03F3FD0205FB02F80301FC02FA08F70105FBF9FF04FF0F
:20020000FD0400FDFFFF04FFFF03040101F90406FEFCFC0002FEFD03F902FEFFFE0200FBEB
:20022000FAF903FE05FA0402FE07FFFE0100FB02FD03000204FB010203FD03FDFE03FCFFC5
:20024000FE01FCFAFF04FDFDFEFB01FD06FE00020100FE01F705FB0404FE06FF00FC0402AB
:20026000FFFF01FDFEFFF901FFFA01FDFD02FB03FEFD03FFFE010100000002FE010500FE96
:2002800003FE00FE00FFF900FFFFFB02000200FE01FD00FEFCFF0301FFFDFEFFFF01FE0179
:2002A0000302020000FE03FBFD02FFFDFD0501FFFF000100FDFE0001FF0002FEFFFE03FD46
:2002C000FE01FEFFFF0301FEFEFFFFFF00FF000100000403FEFFFE000000FEFB000000012A
:2002E000FDFEFFFEFD00FEFE01FE000001FF000102FEFF0000020101FF02FF00FF01FE000C
:20030000FFFD01FE00FEFF0000FFFF0000FFFF00000000000000003700000000003800007A
:200320000000003600020202020202020202020102040810202004100801020000000000F5
:200340000000000011241FBECFE5D2E0DEBFCDBF10E0A0E6B0E0E4EFFBE002C005900D9252
:20036000A638B107D9F711E0A6E8B0E001C01D92A03BB107E1F71ED43BC442CE87B582600E
:2003800087BD88EC90E00197F1F707B400FEFDCF87B5846087BD87B5806887BDF89483EA6B
:2003A0008ABD81E083BF10BE1FBC82E08CBD8FEF8EBD8DBD80E489BF84E880BF78940895EC
:2003C0001F920F920FB60F9211242F933F935F936F937F938F939F93AF93BF93EF93FF939A
:2003E0008091930189BD8091980188BDA0919601B09197018091940190919501A80FB91F96
:20040000B0939501A0939401E091A101F091A2018091990190919A01E80FF91FF0939A0170
:20042000E093990180919B0190919C012091A3013091A401820F931F90939C0180939B01D7
:2004400080919D0190919E012091A5013091A601820F931F90939E0180939D018091860021
:200460008823B1F025E0F695E7952A95E1F7E093AB0180919F019091A0012091A7013091E1
:20048000A801820F931F9093A00180939F011AC0EF2FFF27EF56FF4F60918800808190E05E
:2004A00070E094D3FC01EA0FFB1F86E0F695E7958A95E1F7E093A901F0E0EF56FF4F808190
:2004C00080939301FF91EF91BF91AF919F918F917F916F915F913F912F910F900FBE0F90EA
:2004E0001F90189540918600413069F4880F991F880F991F8F5A9440969587959093A20113
:200500008093A10108959C01220F331F220F331F423069F5E0918800E295E695E770B9011A
:200520006F5F7F4F7093A2016093A101F0E0E359FF4F6F5F7F4F808190E048D39093A4019A
:200540008093A30122503040808590E0B9013ED39093A6018093A501265F3F4F808990E0B3
:20056000B90134D39093A8018093A7010895C90101969093A2018093A1019093A4018093DF
:20058000A3019093A6018093A5010895EF92FF920F931F93CF93DF9380918600882309F022
:2005A00059C080919101882309F0B6C00091AD010093AE01109188008091950190E0AFEF06
:2005C000B0E09D01281B390BC901612F70E0FED2492F9093AD01C92FD0E0E0909D01F0906D
:2005E0009E01E0919C01F0E0EF56FF4F6081CE0170E0ECD2292F332727FD3A95EF2DFF2746
:20060000EF56FF4FA11BB109808190E0BD01DED2892F990F990B280F20939801041730F42C
:2006200080E090E490939C0180939B01AE01401B510957FF03C0509541955F4F443008F421
:2006400097C0942F80E08E0D9F1D90939E0180939D018EC0813009F045C020919401309152
:20066000950136952795369527958091880090E08456904045E0880F991F4A95E1F72817B9
:20068000390720F01092950110929401A0919401B0919501B695A795B695A795E09160001F
:2006A000F0916100EA0FFB1F8491E0919A01F0E0EF56FF4F608190E070E088D2892F990F66
:2006C000990B8093AC018093930116E0B695A7951A95E1F78091AB01AF56BF4FA80FB11DB6
:2006E0008C9144C0823009F043C0A0919A01B0E08091880090E08A179B0750F4E091950138
:20070000E093A901F0E0EF56FF4F80818093930180919101882351F0E091A901E05CE09358
:20072000AA01F0E0EF56FF4F808120C0E0919C01F0E0EF56FF4F2081AF56BF4F8C9190E018
:20074000820F911DE0919E01F0E0EF56FF4F2081820F911DE091A001F0E0EF56FF4F2081F1
:20076000820F911D959587959595879580939801DF91CF911F910F91FF90EF90089506DF52
:2007800080918700863910F481E003C0833A20F082E08093860008951092860008951F92FF
:2007A0000F920FB60F9211242F933F934F935F936F937F938F939F93AF93BF93CF93DF93C5
:2007C000EF93FF93809192018F5F8093920180919000882309F077C050916200E52FF0E02A
:2007E000DF01A957BF4F8C91E557FF4F808324B145B1942F80E030E0822B932B96958795B1
:20080000969587958C9350938F00552371F480918700863910F481E003C0833A20F082E075
:200820008093860002C0109286008091AF018F5F8093AF01863010F01092AF01E091AF019A
:20084000F0E0ED59FF4F90819093620087B1807787B987B1982B97B9523011F590918900B2
:2008600080918D00891759F1292F30E0220F331F220F331F80918600813039F4220F331F8A
:20088000220F331F2F51334006C0220F331F220F331F2F5F3F4F30939701209396010FC086
:2008A000533069F490918A0080918E00891739F0892F90E0880F991F880F991F13DE81E02D
:2008C0008093900037C080918600813089F180916200C82FD0E0FE01E957FF4F8081883C50
:2008E00090F427B3FE01E759FF4F81E090E0A0E0B0E0008004C0880F991FAA1FBB1F0A9458
:20090000D2F7282B27BB87B3C759DF4F21E030E040E050E0088004C0220F331F441F551F4A
:200920000A94D2F72095822387BB88B3282328BB10929000369AFF91EF91DF91CF91BF9119
:20094000AF919F918F917F916F915F914F913F912F910F900FBE0F901F90189517B8379A90
:20096000329A319A309A339A8FB780688FBF08958230910509F445C08330910534F40097DE
:2009800061F0019709F063C025C08330910509F447C0049709F05BC04FC080E090E0FC0195
:2009A000E25EFF4FE491DC01AF56BF4FEC93019680389105A1F78FEF80931101E0E1F1E013
:2009C000DF01129680818D93319720E0E139F207C9F7089520E030E0F901EF56FF4F822FE8
:2009E000880F80832F5F3F4F20383105A9F7E1E1F1E08FEF8193825091E0E139F907D1F7C9
:200A00000895E1E9F0E08FEF819321E0E131F207D9F781E0819391E0E139F907D9F70895C4
:200A200080E090E0FC01EF56FF4F8083019621E080309207B9F7089580E060E086D0E1E965
:200A4000F0E081E0819391E0E139F907D9F7089580E090E08DDF85E061E077D080E061E08F
:200A600035D081E061E032D089DC78DF87B1807787B987B190916200892B87B9369A88ECAF
:200A800090E00197F1F701C07ADE809192018C30D8F381E08093910180918700823A10F4C4
:200AA000109291019091910180918800883C08F490E080918900883C08F490E080918A0021
:200AC000883C08F490E0909391010895CF93DF93482F50E0CA01815D9C4FFC0134914B5D1B
:200AE0005C4FFA018491882369F190E0880F991FFC01ED5EFC4FA591B491FC01E75EFC4FDC
:200B0000C591D491662351F42FB7F8948C91932F909589238C93888189230BC0623061F4A4
:200B20002FB7F8948C91932F909589238C938881832B88832FBF06C09FB7F8948C91832B51
:200B40008C939FBFDF91CF910895482F50E0CA01875C9C4FFC012491CA01815D9C4FFC0128
:200B600094914B5D5C4FFA013491332309F1222359F0213019F0223039F403C08AB58F777E
:200B800002C08AB58F7D8ABDE32FF0E0EE0FFF1FE75EFC4FA591B4912FB7F894662321F4E9
:200BA0008C919095892302C08C91892B8C932FBF08950895CF93DF93D1DEFBDF49DFC0E048
:200BC000D0E0DDDD2097E9F31BDAFBCF5527002480FF02C0060E571F660F771F61157105F7
:200BE00021F096958795009799F7952F802D0895F894FFCF9E00010001000200030502045E
:1A0C0000030202020301020404030405020105060803080708070608100062
:00000001FF
