:20000000A6C0C0C043C4D0C0BDC0BDC0BBC0BAC015C2B8C0B7C0B6C0B5C0B4C0B3C0FF03DA
:2000200006090C0F1215181C1F2225282B2E303336393C3F414447494C4E515355585A5C51
:200040005E60626466686A6C6D6F70727375767778797A7B7C7C7D7E7E7F7F7F7F7F7F7F15
:200060007F7F7F7F7E7E7D7C7C7B7A79787776757372706F6D6C6A68666462605E5C5A5864
:200080005553514E4C494744413F3C393633302E2B2825221F1C1815120F0C09060300FC00
:2000A000F9F6F3F0EDEAE7E3E0DDDAD7D4D1CFCCC9C6C3C0BEBBB8B6B3B1AEACAAA7A5A3CF
:2000C000A19F9D9B9997959392908F8D8C8A898887868584838382818180808080808080CB
:2000E0008080808081818283838485868788898A8C8D8F9092939597999B9D9FA1A3A5A73C
:20010000AAACAEB1B3B6B8BBBEC0C3C6C9CCCFD1D4D7DADDE0E3E7EAEDF0F3F6F9FC000061
:200120000000370000000000380000000000360002020202020202020202010204081020C7
:20014000200410080102000000000000000011241FBECFE5D2E0DEBFCDBF10E0A0E6B0E0B9
:20016000E0E4FBE002C005900D92AE37B107D9F711E0AEE7B0E001C01D92A93DB107E1F781
:2001800022D4DCC43DCF1F920F920FB60F9211248F9380918C018F5F80938C018F910F90C3
:2001A0000FBE0F901F9018951F920F920FB60F9211242F938F939F932091750080918B01B1
:2001C000280F20938B019091840180918200981718F48FEF88BD01C018BC220F20938200F7
:2001E0001FBC9F918F912F910F900FBE0F901F901895809181008823A1F540918B0180916C
:200200007500481710F410927E0080918401682F660F8B3A58F080918D014817F9F0E091DF
:200220007E00F0E0E25EFF4FE49106C0E0917E00F0E0E25EFF4FE4918E2F992787FD9095BF
:2002400070E020E031E0241B3109622B732B80589F4F0CD4892F990F990B89BD40938D0148
:2002600036C08130F9F4E0917E00F0E0E25EFF4FE4918E2F992787FD90956091840170E03C
:200280006F5F7F4F80589F4FF1D326E0959587952A95E1F7E0918B01E80FF0E0E25EFF4F03
:2002A000E49113C0823099F42091840130E02E50304080918B0190E08217930744F0E0919E
:2002C0007E00F0E0E25EFF4FE491E058E9BD22B770918C0160E030E0262B372B80917F00F5
:2002E00090918000281B390B409186018091780090917900841B91090090770002C0880FC2
:20030000991F0A94E2F78217930780F482B790E0682B792B7093800060937F0080917E00A3
:2003200090917600890F80937E00089580918301863970F4109281008BE08093750086E02C
:200340008093760082E0809377008EE091E018C0833A40F082E08093810088E1809375009D
:2003600086E007C081E0809381008BE08093750085E08093760084E0809377008FEF90E09E
:2003800090937900809378000895EF92FF920F931F9360E074E0681B790B9B01220F232F79
:2003A000221F330B2E5F84E08093900180919301880F880F8093910180919401880F880FDD
:2003C0008093920140E050E0E22FF0E071E0E72EF12C012D112DCF01042E02C0959587954D
:2003E0000A94E2F780FF0EC020B7D801C701042E04C0880F991FAA1FBB1F0A94D2F7282B1F
:2004000020BF0EC020B7D801C701042E04C0880F991FAA1FBB1F0A94D2F78095822380BF6F
:200420004F5F5F4F44305105B1F6862F8F7780588EBD1F910F91FF90EF9008951F920F92C4
:200440000FB60F9211242F933F934F935F936F937F938F939F93AF93BF93CF93DF93EF9347
:20046000FF9380918F01882309F066C050917400E52FF0E0DF01AD57BE4F8C91E957FE4FAB
:20048000808324B145B1942F80E030E0822B932B96958795969587958C9350938E01852F1D
:2004A0008F5F80937400843010F01092740087B1807787B987B190917400892B87B952304B
:2004C000C1F4E0918501809189018E1791F0F0E0ED57FF4F8081282F30E0220F331F220F31
:2004E000331F83E0283F380714F027EF33E0C9014CDF80918E01833069F4E09186018091C6
:200500008A018E17A9F0F0E0ED57FF4F8081809386010EC0813061F4E091840180918801B1
:200520008E1731F0F0E0ED57FF4F80818093840181E080938F013BC080918100882321F4A9
:2005400080917400823089F580917400C82FD0E0FE01ED57FE4F8081883C90F427B3FE0108
:20056000E658FF4F81E090E0A0E0B0E0008004C0880F991FAA1FBB1F0A94D2F7282B27BB3C
:2005800087B3C658DF4F21E030E040E050E0088004C0220F331F441F551F0A94D2F72095B2
:2005A000822387BB88B3282328BB10928F01369AFF91EF91DF91CF91BF91AF919F918F9129
:2005C0007F916F915F914F913F912F910F900FBE0F901F90189517B8379A329A319A309A43
:2005E000339A8FB780688FBF08952F923F924F925F926F927F928F929F92AF92BF92CF925A
:20060000DF92EF92FF920F931F93DF93CF93CDB7DEB727970FB6F894DEBF0FBECDBF898305
:200620007FEFE72EF12C012D112D80E090E06624772443013FEF232E312C412C512CAA24E1
:20064000BB24650170E09B01215030403B832A83B981AB2FB0E0BF83AE83FB013A96FD83BA
:20066000EC8338C0FC01EE0FFF1FE40FF51F20813181AE81BF81A217B30758F1FC013196B2
:20068000EE0FFF1FE40FF51F0190F081E02DEA17FB07F8F01F01442455243901882499249A
:2006A000DC01A60FB71FFD013196EE0FFF1FE40FF51F808191817C0100E010E0AA0FBB1FF8
:2006C000A40FB51F8D919C915C01CC24DD248C819D810196EA81FB818E179F071CF200D028
:2006E00000D0F9816F2F70E080E090E0ADB7BEB71196ED92FD920D931C931497A401930131
:20070000820171016CD10F900F900F900F9027960FB6F894DEBF0FBECDBFCF91DF911F91A7
:200720000F91FF90EF90DF90CF90BF90AF909F908F907F906F905F904F903F902F9008955A
:200740001F93CF93DF93C3E8D0E010E0812F65E040E650E04ADF69931F5F81E0C338D8079F
:20076000A9F7DF91CF911F91089585E061E0F6D0E7DF80E061E0B3D081E061E0B0D083EAD7
:200780008ABD81E083BF10BE1FBC82E08CBD8AEF8EBD80E489BF84E880BF789489B78260D2
:2007A00089BF19DF87B1807787B987B190917400892B87B9369A08950F931F93CF93DF9334
:2007C000FC01738D76957170A685B7859585772329F08C91892309F454C004C08C91892395
:2007E00009F04FC08389948920E001972FEF8F3F9207D9F7C589D689A685B785158560E0ED
:2008000031E040E050E000E0CE01202F01972FEF8F3F9207D9F78C91812311F0632B03C079
:20082000832F80956823330F4F5F5F4F4830510559F78789908D20E001972FEF8F3F920760
:20084000D9F7711160958091D7012091D80190E001968F73907030E08217930779F0E091B8
:20086000D701F0E0E956FE4F60838091D70190E001968F7390708093D70103C0838D8160D0
:20088000838FDF91CF911F910F9108951F920F920FB60F9211242F933F934F935F936F9332
:2008A0007F938F939F93AF93BF93EF93FF938091950190919601009709F07EDFFF91EF91CE
:2008C000BF91AF919F918F917F916F915F914F913F912F910F900FBE0F901F901895CF93FF
:2008E000DF93482F50E0CA01865C9E4FFC013491405D5E4FFA018491882369F190E0880F1D
:20090000991FFC01E25EFE4FA591B491FC01EC5DFE4FC591D491662351F42FB7F8948C916F
:20092000932F909589238C93888189230BC0623061F42FB7F8948C91932F909589238C935D
:200940008881832B88832FBF06C09FB7F8948C91832B8C939FBFDF91CF910895482F50E0E3
:20096000CA018C5B9E4FFC012491CA01865C9E4FFC019491405D5E4FFA013491332309F110
:20098000222359F0213019F0223039F403C08AB58F7702C08AB58F7D8ABDE32FF0E0EE0FB5
:2009A000FF1FEC5DFE4FA591B4912FB7F894662321F48C919095892302C08C91892B8C9358
:2009C0002FBF08950895CF93DF9305DEFBDFCDDEC0E0D0E00EDC2097E9F312DBFBCF2F926E
:2009E0003F924F925F926F927F928F929F92AF92BF92CF92DF92EF92FF920F931F93DF93B4
:200A0000CF93CDB7DEB73B014C0119012A016D897E898F89988D6A197B098C099D09621A95
:200A2000730A840A950AA401930132D0E218F30804091509A801970166D02A0D3B1D4C1D42
:200A40005D1DB901CA01CF91DF911F910F91FF90EF90DF90CF90BF90AF909F908F907F90B0
:200A60006F905F904F903F902F9008955527002480FF02C0060E571F660F771F611571051C
:200A800021F096958795009799F7952F802D0895FF27EE27BB27AA2760FF04C0A20FB31F35
:200AA000E41FF51F220F331F441F551F969587957795679589F70097760771F7CF01BD01EC
:200AC0000895A1E21A2EAA1BBB1BFD010DC0AA1FBB1FEE1FFF1FA217B307E407F50720F010
:200AE000A21BB30BE40BF50B661F771F881F991F1A9469F760957095809590959B01AC0187
:200B0000BD01CF01089597FB092E05260ED057FD04D0D7DF0AD0001C38F450954095309559
:200B200021953F4F4F4F5F4F0895F6F790958095709561957F4F8F4F9F4F0895F894FFCFD5
:1E0B400000003F007F00BF00EA000F006400A000D200FE0001060603FF00060204032F
:00000001FF
