:1000000023C03DC03CC007C13AC039C038C037C06A
:100010005AC135C034C033C032C031C030C0000016
:100020000000370000000000380002020202020255
:10003000020202020102040810202004100801023A
:10004000000004000000000011241FBECFE5D2E034
:10005000DEBFCDBF10E0A0E6B0E0E6EEF8E002C003
:1000600005900D92AA38B107D9F721E0AAE8B0E0CF
:1000700001C01D92A53AB207E1F70CD232C4C0CF3D
:1000800090E0FC01E25CFF4F3491FC01EC5CFF4F1F
:100090002491FC01E65DFF4FE491EE23B9F0332398
:1000A00029F0323001F198F43130C9F0F0E0EE0F70
:1000B000FF1FEC5DFF4FA591B4918FB7F894EC91C1
:1000C000611114C020952E232C938FBF08953330D7
:1000D00011F0343059F78CB58F7D8CBDE7CF8AB5E0
:1000E0008F778ABDE3CF8AB58F7DFBCF2E2BECCFE8
:1000F000CF93DF9390E0FC01EC5CFF4F2491865D91
:100100009F4FFC0184918823D1F090E0880F991FC4
:10011000FC01E25EFF4FA591B491FC01EC5DFF4F45
:10012000C591D49161110EC09FB7F8948C91E22FC4
:10013000E0958E238C932881E223E8839FBFDF9193
:10014000CF9108958FB7F894EC91E22BEC938FBF89
:10015000F6CF17B8379A329A319A309A339A8FB7C6
:1001600080688FBF089580919701982F990F909381
:100170009701209191003091920036952795369500
:1001800027952639310520F4881F8827881F07C046
:10019000233A3105D0F182B787FB882780F988237D
:1001A00019F0916090939701109299011092980123
:1001B0002091970120FF06C081E090E09093990183
:1001C00080939801809198019091990123FF1FC01D
:1001D0008260909399018093980180919801909109
:1001E000990125FF16C0846090939901809398012E
:1001F000E0919801F0919901EE57FF4F808190E0D6
:10020000909399018093980108958095BDCF8D7F3B
:10021000E0CF8B7FE9CF1F920F920FB60F92112480
:100220002F933F934F935F936F937F938F939F93FE
:1002300080919D018F5F80939D0181111FC09091DE
:10024000750021E09227909375009923A9F14091C0
:100250009F015091A0016091A1017091A2014530D0
:1002600051056105710528F110929E0110929F01C0
:100270001092A0011092A1011092A20190E0209191
:1002800075002223D9F02FEF30E0281B390B309373
:100290009B0120939A011FBC9F918F917F916F9139
:1002A0005F914F913F912F910F900FBE0F901F9034
:1002B000189520939E01DACF90E080E090939B0107
:1002C00080939A01E8CF1F920F920FB60F921124DC
:1002D000CF92DF92EF92FF922F933F934F935F93D2
:1002E0006F937F938F939F93AF93BF93EF93FF93FE
:1002F0008091740090919000911197C0E82FF0E0E8
:10030000EE0FFF1FDF01A657BF4FEF56FF4F2081B3
:1003100031812D933C9394B125B1322F292F318314
:100320002083823009F047C080919500909196001B
:1003300020918E0030918F0028173907E1F19695B2
:10034000879596958795FC01E956FF4F208130E00F
:1003500043E0220F331F4A95E1F784E198E0821BC6
:10036000930BFC01EE0FEF2FEE1FFF0BEF5F30E062
:1003700020E0C12CD12C7601C394F0E0B701A60196
:10038000022E04C0440F551F661F771F0A94D2F730
:10039000DF01022E02C0B595A7950A94E2F7A0FFEF
:1003A00019C0A0B74A2B40BF2F5F3F4F2430310503
:1003B00029F780688EBD909174009F5F892FE82F88
:1003C000F0E0E258FF4F9081911108C08F5F8430B8
:1003D000B0F3F4CFA0B740954A23E5CF833018F5AA
:1003E000809374008091740097B1907797B997B11A
:1003F000892B87B981E080939000369AFF91EF9125
:10040000BF91AF919F918F917F916F915F914F912C
:100410003F912F91FF90EF90DF90CF900F900FBE04
:100420000F901F90189582E0DBCF823081F580918C
:100430009500909196008E3E924008F4BC9A27B3A6
:10044000E0917400F0E0E658FF4F308181E090E0E9
:10045000A0E0B0E0AC01BD0104C0440F551F661F11
:10046000771F3A95D2F74095422347BB28B3E091D6
:100470007400F0E0E658FF4F308104C0880F991FE8
:10048000AA1FBB1F3A95D2F78095822388BB109292
:100490009000B3CFCF93DF9300D000D000D0CDB782
:1004A000DEB757DE8CB580648CBD61E085E0E8DDA9
:1004B00060E084E01DDE61E084E0E2DD77E9272E84
:1004C00070E0372EC12CD12C760186012FEF30E061
:1004D00040E050E0812C912C54016FEF70E080E0FF
:1004E00090E069837A838B839C83412C512C320169
:1004F00090E080E0DC01AA0FBB1FFD01E05AFF4F36
:10050000608171817E836D830617170718F1FD01E5
:10051000EE59FF4F6081718160177107D8F09B0120
:1005200050E040E029833A834B835C834D815E81B8
:100530002A01712C612CFD01E459FF4F208131818A
:1005400050E040E0A659BF4F8D909C90B12CA12C5B
:100550008FE090E001968430910564F2C701B60106
:100560006419750986099709281939094A095B0927
:1005700061D129813A814B815C8124193509460971
:10058000570971D1820E931EA41EB51ED1018D9202
:100590001D01BFEFCB1ADB0AEB0AFB0AC114E1E035
:1005A000DE06E104F10409F090CF83EA8ABD81E020
:1005B00083BF10BE1FBC82E08CBD8AEF8EBD80E47D
:1005C00089BF84E880BF80B78B7F80BF7894DBD001
:1005D0002FEF30E040E050E046D16093970161E0BA
:1005E00080E086DD60E087E083DD60E088E080DD3C
:1005F00060E089E07DDD61E081E07ADD61E082E05C
:1006000077DD60E083E074DD60E084E071DD60E070
:1006100084E036DD9EDD8091740097B1907797B9C4
:1006200097B1892B87B9369A01E086B311E0982FEC
:10063000987083FF10E01093A4018091A3018111B1
:1006400024C0992311F180919F019091A001A09164
:10065000A101B091A2010196A11DB11D80939F013E
:100660009093A001A093A101B093A2010997A105C5
:10067000B10510F010929E0180919E01882321F017
:1006800010929D01109275006EDD1093A301809170
:100690009C0190919D0197FD24C000939C011091B5
:1006A0009C01811739F080919E0181115CDD11233D
:1006B000D9F0C29A80919A0190919B0197FD16C042
:1006C0008F3F910519F014F08FEF90E088BD809175
:1006D000980189BD20E030E0232B09F4A6CF90DCFF
:1006E000A4CF10929C01DBCFC298E4CF80E0EECF84
:1006F0008F929F92AF92BF92CF92DF92EF92FF9232
:10070000CF93DF93EC01688179818A819B816115A8
:1007100071058105910521F464E279ED8BE597E09F
:100720002DE133EF41E050E09ED049015A0127EA24
:1007300031E440E050E07ED06B017C012CEE34EFE0
:100740004FEF5FEFC501B40175D0C60ED71EE81E8E
:10075000F91EF7FE06C081E0C81AD108E10880E85A
:10076000F80AC882D982EA82FB82C701B6019F7764
:10077000DF91CF91FF90EF90DF90CF90BF90AF903F
:100780009F908F9008958F929F92AF92BF92CF9239
:10079000DF92EF92FF9260917600709177008091E6
:1007A000780090917900611571058105910521F41A
:1007B00064E279ED8BE597E02DE133EF41E050E025
:1007C00052D049015A0127EA31E440E050E032D0EA
:1007D0006B017C012CEE34EF4FEF5FEFC501B401EC
:1007E00029D0C60ED71EE81EF91EF7FE06C081E00E
:1007F000C81AD108E10880E8F80AC0927600D092C1
:100800007700E0927800F0927900C701B6019F77F7
:10081000FF90EF90DF90CF90BF90AF909F908F9020
:10082000089560937600709377008093780090939A
:1008300079000895EE27FF27AA27BB2708C0A20F3B
:10084000B31FE41FF51F220F331F441F551F96953A
:1008500087957795679598F37040A9F7009799F772
:10086000BD01CF010895052E97FB16F400940FD01B
:1008700057FD05D014D007FC02D046F408C05095AF
:100880004095309521953F4F4F4F5F4F089590957C
:100890008095709561957F4F8F4F9F4F0895A1E28E
:1008A0001A2EAA1BBB1BFD010DC0AA1FBB1FEE1FEA
:1008B000FF1FA217B307E407F50720F0A21BB30B35
:1008C000E40BF50B661F771F881F991F1A9469F7B1
:1008D00060957095809590959B01AC01BD01CF010D
:0608E0000895F894FFCF1B
:1008E600000032007F00BF00FF0050009D00B400F2
:1008F600DC00FE0001010100000007020403010004
:0A090600010000507896B4C8DCFF31
:00000001FF
