:2000000026C040C03FC099C03DC03CC03BC03AC0ACC138C037C036C035C034C033C0000086
:200020000000370000000000380000000000360002020202020202020202010204081020C8
:20004000200410080102000000000000000011241FBECFE5D2E0DEBFCDBF10E0A0E6B0E0BA
:20006000EAE8F9E002C005900D92A638B107D9F711E0A6E8B0E001C01D92AB39B107E1F786
:2000800082D381C4BDCFA0E0B0E0E8E4F0E04CC4EC01A880B980CA80DB80A114B104C1045C
:2000A000D10441F484E2A82E89EDB82E8BE5C82E87E0D82EC601B5012DE133EF41E050E0CD
:2000C000EED327EA31E440E050E0D0D37B018C01C601B5012DE133EF41E050E0E0D3CA01C1
:2000E000B9012CEE34EF4FEF5FEFC0D36E0D7F1D801F911F97FF04C0615070408040904831
:20010000688379838A839B839B01AC015F77B901CA01CDB7DEB7EAE023C4B5DF089580E6C8
:2001200090E0B1DF089560936000709361008093620090936300089508951F920F920FB61F
:200140000F9211242F933F934F938F939F93EF93FF93909195019F5F9093950180917900F3
:20016000882321F0983C10F4C29A01C0C29886B390E0F3E096958795FA95E1F7982F917082
:200180009093960180919A01882331F4992321F0109295011092790090939A0140919501E4
:2001A000442309F063C08091790091E0892780937900809192008823282F221F2227221F15
:2001C000382F330F30939200809186009091870096958795969587958639910570F0833AE2
:2001E000910548F082B790E0880F892F881F990B892B29F003C081E0282721113160309328
:20020000920080919200282F80FF07C081E090E0909399018093980104C010929901109230
:200220009801809198019091990123FF02C0826001C08D7F9093990180939801809198011A
:200240009091990125FF02C0846001C08B7F9093990180939801E0919801F0919901E65882
:20026000FF4F8081809398011092990180917900882349F08FEF90E0841B910990939401FA
:200280008093930104C04093930110929401809193019091940197FF02C080E006C08F3FAE
:2002A000910519F014F08FEF90E088BD8091980189BD1FBCFF91EF919F918F914F913F918D
:2002C0002F910F900FBE0F901F901895EF92FF920F931F9313E0880F991F1A95E1F764E183
:2002E00078E0681B790BCB01880F892F881F990B8F5F40E050E0E82FF0E0A1E0EA2EF12C5E
:20030000012D112DCF01042E02C0959587950A94E2F780FF0EC020B7D801C701042E04C035
:20032000880F991FAA1FBB1F0A94D2F7282B20BF0EC020B7D801C701042E04C0880F991FA7
:20034000AA1FBB1F0A94D2F78095822380BF4F5F5F4F44305105B1F6862F8F7780588EBDEF
:200360001F910F91FF90EF9008951F920F920FB60F9211242F933F934F935F936F937F9319
:200380008F939F93AF93BF93EF93FF938091970150916400882309F04FC0E52FF0E0EE0FDF
:2003A000FF1FDF01AA57BF4F8D919C911197E457FF4F9183808324B145B1942F80E030E09F
:2003C000822B932B8D939C935230A1F4E0918A00F0918B0080919000909191008E179F07A7
:2003E00049F0F695E795F695E795ED56FF4F808190E06CDF909164009F5F04C09F5F943060
:2004000008F090E0E92FF0E0EE57FF4F80818823A9F390936400933018F082E08093640086
:2004200087B1807387B987B190916400892B87B981E0809397010EC0523051F480918A0064
:2004400090918B008E5E924008F4BC9ABC98C49810929701369AFF91EF91BF91AF919F9156
:200460008F917F916F915F914F913F912F910F900FBE0F901F90189517B8379A329A319A4E
:20048000309A339A8FB780688FBF08952F923F924F925F926F927F928F929F92AF92BF9252
:2004A000CF92DF92EF92FF920F931F93DF93CF93CDB7DEB727970FB6F894DEBF0FBECDBF12
:2004C00089836624772443017FEF272E312C412C512CAA24BB2465013FEFE32EF12C012D00
:2004E000112D80E090E070E09B01215030403B832A83B981AB2FB0E0BF83AE83FB013A96D3
:20050000FD83EC8338C0FC01EE0FFF1FE40FF51F20813181AE81BF81A217B30758F1FC015A
:200520003196EE0FFF1FE40FF51F0190F081E02DEA17FB07F8F01F014424552439018824F1
:200540009924DC01A60FB71FFD013196EE0FFF1FE40FF51F808191817C0100E010E0AA0F76
:20056000BB1FA40FB51F8D919C915C01CC24DD248C819D810196EA81FB818E179F071CF27F
:2005800000D000D0F9816F2F70E080E090E0ADB7BEB71196ED92FD920D931C931497A40156
:2005A000930182017101FBD00F900F900F900F9027960FB6F894DEBF0FBECDBFCF91DF9197
:2005C0001F910F91FF90EF90DF90CF90BF90AF909F908F907F906F905F904F903F902F90A9
:2005E00008951F93CF93DF93C3E9D0E010E0812F65E045E650E04ADF69931F5F81E0C3393C
:20060000D807A9F7DF91CF911F91089585E061E085D084E060E043D084E061E07FD0E1DFD8
:2006200083EA8ABD81E083BF10BE1FBC82E08CBD8AEF8EBD80E489BF84E880BF80B78B7FB3
:2006400080BF78946FEF70E080E090E0EFD06093920080E061E023D087E060E020D088E0FA
:2006600060E01DD089E060E01AD081E061E017D082E061E014D083E060E011D084E060E082
:200680000ED084E060E04AD0F7DE87B1807387B987B190916400892B87B9369A0895CF93FE
:2006A000DF93482F50E0CA01865C9F4FFC013491405D5F4FFA018491882369F190E0880F5D
:2006C000991FFC01E25EFF4FA591B491FC01EC5DFF4FC591D491662351F42FB7F8948C91B0
:2006E000932F909589238C93888189230BC0623061F42FB7F8948C91932F909589238C93A0
:200700008881832B88832FBF06C09FB7F8948C91832B8C939FBFDF91CF910895482F50E025
:20072000CA018C5B9F4FFC012491CA01865C9F4FFC019491405D5F4FFA013491332309F14F
:20074000222359F0213019F0223039F403C08AB58F7702C08AB58F7D8ABDE32FF0E0EE0FF7
:20076000FF1FEC5DFF4FA591B4912FB7F894662321F48C919095892302C08C91892B8C9399
:200780002FBF08950895CF93DF9376DEFBDF3EDFC0E0D0E0D1DC2097E9F332DCFBCF2F92E9
:2007A0003F924F925F926F927F928F929F92AF92BF92CF92DF92EF92FF920F931F93DF93F6
:2007C000CF93CDB7DEB73B014C0119012A016D897E898F89988D6A197B098C099D09621AD8
:2007E000730A840A950AA401930140D0E218F30804091509A801970152D02A0D3B1D4C1D8B
:200800005D1DB901CA01CF91DF911F910F91FF90EF90DF90CF90BF90AF909F908F907F90F2
:200820006F905F904F903F902F900895EF92FF920F931F937B018C01611571058105910549
:2008400029F420E030E040E050E009C068DCA801970125D0AC01CB01DA019C01AD01B9017F
:20086000CA011F910F91FF90EF900895FF27EE27BB27AA2760FF04C0A20FB31FE41FF51F07
:20088000220F331F441F551F969587957795679589F70097760771F7CF01BD01089597FBF6
:2008A000092E05260ED057FD04D014D00AD0001C38F450954095309521953F4F4F4F5F4FBB
:2008C0000895F6F790958095709561957F4F8F4F9F4F0895A1E21A2EAA1BBB1BFD010DC0F1
:2008E000AA1FBB1FEE1FFF1FA217B307E407F50720F0A21BB30BE40BF50B661F771F881F94
:20090000991F1A9469F760957095809590959B01AC01BD01CF0108952F923F924F925F9205
:200920006F927F928F929F92AF92BF92CF92DF92EF92FF920F931F93CF93DF93CDB7DEB79C
:20094000CA1BDB0B0FB6F894DEBF0FBECDBF09942A88398848885F846E847D848C849B84A0
:20096000AA84B984C884DF80EE80FD800C811B81AA81B981CE0FD11D0FB6F894DEBF0FBE62
:20098000CDBFED010895F894FFCF010000000100003C007F00BF00FF0032007F00BE00E616
:1009A00000FE000100507896B4C8DCFF0100010091
:00000001FF
